{
	"contracts/29_AbiFuncitons.sol": {
		"EncodeDecode": {
			"abi": [
				{
					"inputs": [
						{
							"internalType": "bytes",
							"name": "_hesadecimalinputs",
							"type": "bytes"
						}
					],
					"name": "decode1",
					"outputs": [
						{
							"internalType": "string",
							"name": "_str1",
							"type": "string"
						},
						{
							"internalType": "uint256",
							"name": "_int",
							"type": "uint256"
						},
						{
							"internalType": "string",
							"name": "_str2",
							"type": "string"
						}
					],
					"stateMutability": "pure",
					"type": "function"
				},
				{
					"inputs": [
						{
							"internalType": "string",
							"name": "_str1",
							"type": "string"
						},
						{
							"internalType": "uint256",
							"name": "_int",
							"type": "uint256"
						},
						{
							"internalType": "string",
							"name": "_str2",
							"type": "string"
						}
					],
					"name": "encode",
					"outputs": [
						{
							"internalType": "bytes",
							"name": "",
							"type": "bytes"
						}
					],
					"stateMutability": "pure",
					"type": "function"
				}
			],
			"devdoc": {
				"kind": "dev",
				"methods": {},
				"version": 1
			},
			"evm": {
				"assembly": "    /* \"contracts/29_AbiFuncitons.sol\":55:941  contract EncodeDecode {... */\n  mstore(0x40, 0x80)\n  callvalue\n  dup1\n  iszero\n  tag_1\n  jumpi\n  0x00\n  dup1\n  revert\ntag_1:\n  pop\n  dataSize(sub_0)\n  dup1\n  dataOffset(sub_0)\n  0x00\n  codecopy\n  0x00\n  return\nstop\n\nsub_0: assembly {\n        /* \"contracts/29_AbiFuncitons.sol\":55:941  contract EncodeDecode {... */\n      mstore(0x40, 0x80)\n      callvalue\n      dup1\n      iszero\n      tag_1\n      jumpi\n      0x00\n      dup1\n      revert\n    tag_1:\n      pop\n      jumpi(tag_2, lt(calldatasize, 0x04))\n      shr(0xe0, calldataload(0x00))\n      dup1\n      0x3b7fa265\n      eq\n      tag_3\n      jumpi\n      dup1\n      0xbac1d572\n      eq\n      tag_4\n      jumpi\n    tag_2:\n      0x00\n      dup1\n      revert\n        /* \"contracts/29_AbiFuncitons.sol\":83:712  function encode(string memory _str1, uint _int, string memory _str2) public pure returns(bytes memory) {... */\n    tag_3:\n      tag_5\n      tag_6\n      calldatasize\n      0x04\n      tag_7\n      jump\t// in\n    tag_6:\n      tag_8\n      jump\t// in\n    tag_5:\n      mload(0x40)\n      tag_9\n      swap2\n      swap1\n      tag_10\n      jump\t// in\n    tag_9:\n      mload(0x40)\n      dup1\n      swap2\n      sub\n      swap1\n      return\n        /* \"contracts/29_AbiFuncitons.sol\":718:939  function decode1( bytes memory _hesadecimalinputs) public pure returns (string memory _str1, uint _int, string memory _str2){... */\n    tag_4:\n      tag_11\n      tag_12\n      calldatasize\n      0x04\n      tag_13\n      jump\t// in\n    tag_12:\n      tag_14\n      jump\t// in\n    tag_11:\n      mload(0x40)\n      tag_9\n      swap4\n      swap3\n      swap2\n      swap1\n      tag_16\n      jump\t// in\n        /* \"contracts/29_AbiFuncitons.sol\":83:712  function encode(string memory _str1, uint _int, string memory _str2) public pure returns(bytes memory) {... */\n    tag_8:\n        /* \"contracts/29_AbiFuncitons.sol\":172:184  bytes memory */\n      0x60\n        /* \"contracts/29_AbiFuncitons.sol\":216:221  _str1 */\n      dup4\n        /* \"contracts/29_AbiFuncitons.sol\":223:227  _int */\n      dup4\n        /* \"contracts/29_AbiFuncitons.sol\":229:234  _str2 */\n      dup4\n        /* \"contracts/29_AbiFuncitons.sol\":205:235  abi.encode(_str1, _int, _str2) */\n      add(0x20, mload(0x40))\n      tag_18\n      swap4\n      swap3\n      swap2\n      swap1\n      tag_16\n      jump\t// in\n    tag_18:\n      mload(0x40)\n      0x20\n      dup2\n      dup4\n      sub\n      sub\n      dup2\n      mstore\n      swap1\n      0x40\n      mstore\n        /* \"contracts/29_AbiFuncitons.sol\":196:236  return  (abi.encode(_str1, _int, _str2)) */\n      swap1\n      pop\n        /* \"contracts/29_AbiFuncitons.sol\":83:712  function encode(string memory _str1, uint _int, string memory _str2) public pure returns(bytes memory) {... */\n      swap4\n      swap3\n      pop\n      pop\n      pop\n      jump\t// out\n        /* \"contracts/29_AbiFuncitons.sol\":718:939  function decode1( bytes memory _hesadecimalinputs) public pure returns (string memory _str1, uint _int, string memory _str2){... */\n    tag_14:\n        /* \"contracts/29_AbiFuncitons.sol\":790:809  string memory _str1 */\n      0x60\n        /* \"contracts/29_AbiFuncitons.sol\":811:820  uint _int */\n      0x00\n        /* \"contracts/29_AbiFuncitons.sol\":822:841  string memory _str2 */\n      0x60\n        /* \"contracts/29_AbiFuncitons.sol\":888:906  _hesadecimalinputs */\n      dup4\n        /* \"contracts/29_AbiFuncitons.sol\":876:932  abi.decode((_hesadecimalinputs), (string, uint, string)) */\n      dup1\n      0x20\n      add\n      swap1\n      mload\n      dup2\n      add\n      swap1\n      tag_20\n      swap2\n      swap1\n      tag_21\n      jump\t// in\n    tag_20:\n        /* \"contracts/29_AbiFuncitons.sol\":852:932  (_str1, _int, _str2)  = abi.decode((_hesadecimalinputs), (string, uint, string)) */\n      swap2\n      swap7\n      swap1\n      swap6\n      pop\n      swap1\n      swap4\n      pop\n        /* \"contracts/29_AbiFuncitons.sol\":718:939  function decode1( bytes memory _hesadecimalinputs) public pure returns (string memory _str1, uint _int, string memory _str2){... */\n      swap2\n      pop\n      pop\n      jump\t// out\n        /* \"#utility.yul\":14:141   */\n    tag_22:\n        /* \"#utility.yul\":75:85   */\n      0x4e487b71\n        /* \"#utility.yul\":70:73   */\n      0xe0\n        /* \"#utility.yul\":66:86   */\n      shl\n        /* \"#utility.yul\":63:64   */\n      0x00\n        /* \"#utility.yul\":56:87   */\n      mstore\n        /* \"#utility.yul\":106:110   */\n      0x41\n        /* \"#utility.yul\":103:104   */\n      0x04\n        /* \"#utility.yul\":96:111   */\n      mstore\n        /* \"#utility.yul\":130:134   */\n      0x24\n        /* \"#utility.yul\":127:128   */\n      0x00\n        /* \"#utility.yul\":120:135   */\n      revert\n        /* \"#utility.yul\":146:421   */\n    tag_23:\n        /* \"#utility.yul\":217:219   */\n      0x40\n        /* \"#utility.yul\":211:220   */\n      mload\n        /* \"#utility.yul\":282:284   */\n      0x1f\n        /* \"#utility.yul\":263:276   */\n      dup3\n      add\n      not(0x1f)\n        /* \"#utility.yul\":259:286   */\n      and\n        /* \"#utility.yul\":247:287   */\n      dup2\n      add\n        /* \"#utility.yul\":317:335   */\n      0xffffffffffffffff\n        /* \"#utility.yul\":302:336   */\n      dup2\n      gt\n        /* \"#utility.yul\":338:360   */\n      dup3\n      dup3\n      lt\n        /* \"#utility.yul\":299:361   */\n      or\n        /* \"#utility.yul\":296:384   */\n      iszero\n      tag_33\n      jumpi\n        /* \"#utility.yul\":364:382   */\n      tag_33\n      tag_22\n      jump\t// in\n    tag_33:\n        /* \"#utility.yul\":400:402   */\n      0x40\n        /* \"#utility.yul\":393:415   */\n      mstore\n        /* \"#utility.yul\":146:421   */\n      swap2\n      swap1\n      pop\n      jump\t// out\n        /* \"#utility.yul\":426:613   */\n    tag_24:\n        /* \"#utility.yul\":475:479   */\n      0x00\n        /* \"#utility.yul\":508:526   */\n      0xffffffffffffffff\n        /* \"#utility.yul\":500:506   */\n      dup3\n        /* \"#utility.yul\":497:527   */\n      gt\n        /* \"#utility.yul\":494:550   */\n      iszero\n      tag_36\n      jumpi\n        /* \"#utility.yul\":530:548   */\n      tag_36\n      tag_22\n      jump\t// in\n    tag_36:\n      pop\n        /* \"#utility.yul\":596:598   */\n      0x1f\n        /* \"#utility.yul\":575:590   */\n      add\n      not(0x1f)\n        /* \"#utility.yul\":571:600   */\n      and\n        /* \"#utility.yul\":602:606   */\n      0x20\n        /* \"#utility.yul\":567:607   */\n      add\n      swap1\n        /* \"#utility.yul\":426:613   */\n      jump\t// out\n        /* \"#utility.yul\":618:956   */\n    tag_25:\n        /* \"#utility.yul\":683:688   */\n      0x00\n        /* \"#utility.yul\":712:765   */\n      tag_38\n        /* \"#utility.yul\":728:764   */\n      tag_39\n        /* \"#utility.yul\":757:763   */\n      dup5\n        /* \"#utility.yul\":728:764   */\n      tag_24\n      jump\t// in\n    tag_39:\n        /* \"#utility.yul\":712:765   */\n      tag_23\n      jump\t// in\n    tag_38:\n        /* \"#utility.yul\":703:765   */\n      swap1\n      pop\n        /* \"#utility.yul\":788:794   */\n      dup3\n        /* \"#utility.yul\":781:786   */\n      dup2\n        /* \"#utility.yul\":774:795   */\n      mstore\n        /* \"#utility.yul\":828:831   */\n      dup4\n        /* \"#utility.yul\":819:825   */\n      dup4\n        /* \"#utility.yul\":814:817   */\n      dup4\n        /* \"#utility.yul\":810:826   */\n      add\n        /* \"#utility.yul\":807:832   */\n      gt\n        /* \"#utility.yul\":804:849   */\n      iszero\n      tag_40\n      jumpi\n        /* \"#utility.yul\":845:846   */\n      0x00\n        /* \"#utility.yul\":842:843   */\n      dup1\n        /* \"#utility.yul\":835:847   */\n      revert\n        /* \"#utility.yul\":804:849   */\n    tag_40:\n        /* \"#utility.yul\":894:900   */\n      dup3\n        /* \"#utility.yul\":889:892   */\n      dup3\n        /* \"#utility.yul\":882:886   */\n      0x20\n        /* \"#utility.yul\":875:880   */\n      dup4\n        /* \"#utility.yul\":871:887   */\n      add\n        /* \"#utility.yul\":858:901   */\n      calldatacopy\n        /* \"#utility.yul\":948:949   */\n      0x00\n        /* \"#utility.yul\":941:945   */\n      0x20\n        /* \"#utility.yul\":932:938   */\n      dup5\n        /* \"#utility.yul\":925:930   */\n      dup4\n        /* \"#utility.yul\":921:939   */\n      add\n        /* \"#utility.yul\":917:946   */\n      add\n        /* \"#utility.yul\":910:950   */\n      mstore\n        /* \"#utility.yul\":618:956   */\n      swap4\n      swap3\n      pop\n      pop\n      pop\n      jump\t// out\n        /* \"#utility.yul\":961:1183   */\n    tag_26:\n        /* \"#utility.yul\":1004:1009   */\n      0x00\n        /* \"#utility.yul\":1057:1060   */\n      dup3\n        /* \"#utility.yul\":1050:1054   */\n      0x1f\n        /* \"#utility.yul\":1042:1048   */\n      dup4\n        /* \"#utility.yul\":1038:1055   */\n      add\n        /* \"#utility.yul\":1034:1061   */\n      slt\n        /* \"#utility.yul\":1024:1079   */\n      tag_42\n      jumpi\n        /* \"#utility.yul\":1075:1076   */\n      0x00\n        /* \"#utility.yul\":1072:1073   */\n      dup1\n        /* \"#utility.yul\":1065:1077   */\n      revert\n        /* \"#utility.yul\":1024:1079   */\n    tag_42:\n        /* \"#utility.yul\":1097:1177   */\n      tag_43\n        /* \"#utility.yul\":1173:1176   */\n      dup4\n        /* \"#utility.yul\":1164:1170   */\n      dup4\n        /* \"#utility.yul\":1151:1171   */\n      calldataload\n        /* \"#utility.yul\":1144:1148   */\n      0x20\n        /* \"#utility.yul\":1136:1142   */\n      dup6\n        /* \"#utility.yul\":1132:1149   */\n      add\n        /* \"#utility.yul\":1097:1177   */\n      tag_25\n      jump\t// in\n    tag_43:\n        /* \"#utility.yul\":1088:1177   */\n      swap4\n        /* \"#utility.yul\":961:1183   */\n      swap3\n      pop\n      pop\n      pop\n      jump\t// out\n        /* \"#utility.yul\":1188:1799   */\n    tag_7:\n        /* \"#utility.yul\":1285:1291   */\n      0x00\n        /* \"#utility.yul\":1293:1299   */\n      dup1\n        /* \"#utility.yul\":1301:1307   */\n      0x00\n        /* \"#utility.yul\":1354:1356   */\n      0x60\n        /* \"#utility.yul\":1342:1351   */\n      dup5\n        /* \"#utility.yul\":1333:1340   */\n      dup7\n        /* \"#utility.yul\":1329:1352   */\n      sub\n        /* \"#utility.yul\":1325:1357   */\n      slt\n        /* \"#utility.yul\":1322:1374   */\n      iszero\n      tag_45\n      jumpi\n        /* \"#utility.yul\":1370:1371   */\n      0x00\n        /* \"#utility.yul\":1367:1368   */\n      dup1\n        /* \"#utility.yul\":1360:1372   */\n      revert\n        /* \"#utility.yul\":1322:1374   */\n    tag_45:\n        /* \"#utility.yul\":1410:1419   */\n      dup4\n        /* \"#utility.yul\":1397:1420   */\n      calldataload\n        /* \"#utility.yul\":1439:1457   */\n      0xffffffffffffffff\n        /* \"#utility.yul\":1480:1482   */\n      dup1\n        /* \"#utility.yul\":1472:1478   */\n      dup3\n        /* \"#utility.yul\":1469:1483   */\n      gt\n        /* \"#utility.yul\":1466:1500   */\n      iszero\n      tag_46\n      jumpi\n        /* \"#utility.yul\":1496:1497   */\n      0x00\n        /* \"#utility.yul\":1493:1494   */\n      dup1\n        /* \"#utility.yul\":1486:1498   */\n      revert\n        /* \"#utility.yul\":1466:1500   */\n    tag_46:\n        /* \"#utility.yul\":1519:1569   */\n      tag_47\n        /* \"#utility.yul\":1561:1568   */\n      dup8\n        /* \"#utility.yul\":1552:1558   */\n      dup4\n        /* \"#utility.yul\":1541:1550   */\n      dup9\n        /* \"#utility.yul\":1537:1559   */\n      add\n        /* \"#utility.yul\":1519:1569   */\n      tag_26\n      jump\t// in\n    tag_47:\n        /* \"#utility.yul\":1509:1569   */\n      swap5\n      pop\n        /* \"#utility.yul\":1616:1618   */\n      0x20\n        /* \"#utility.yul\":1605:1614   */\n      dup7\n        /* \"#utility.yul\":1601:1619   */\n      add\n        /* \"#utility.yul\":1588:1620   */\n      calldataload\n        /* \"#utility.yul\":1578:1620   */\n      swap4\n      pop\n        /* \"#utility.yul\":1673:1675   */\n      0x40\n        /* \"#utility.yul\":1662:1671   */\n      dup7\n        /* \"#utility.yul\":1658:1676   */\n      add\n        /* \"#utility.yul\":1645:1677   */\n      calldataload\n        /* \"#utility.yul\":1629:1677   */\n      swap2\n      pop\n        /* \"#utility.yul\":1702:1704   */\n      dup1\n        /* \"#utility.yul\":1692:1700   */\n      dup3\n        /* \"#utility.yul\":1689:1705   */\n      gt\n        /* \"#utility.yul\":1686:1722   */\n      iszero\n      tag_48\n      jumpi\n        /* \"#utility.yul\":1718:1719   */\n      0x00\n        /* \"#utility.yul\":1715:1716   */\n      dup1\n        /* \"#utility.yul\":1708:1720   */\n      revert\n        /* \"#utility.yul\":1686:1722   */\n    tag_48:\n      pop\n        /* \"#utility.yul\":1741:1793   */\n      tag_49\n        /* \"#utility.yul\":1785:1792   */\n      dup7\n        /* \"#utility.yul\":1774:1782   */\n      dup3\n        /* \"#utility.yul\":1763:1772   */\n      dup8\n        /* \"#utility.yul\":1759:1783   */\n      add\n        /* \"#utility.yul\":1741:1793   */\n      tag_26\n      jump\t// in\n    tag_49:\n        /* \"#utility.yul\":1731:1793   */\n      swap2\n      pop\n      pop\n        /* \"#utility.yul\":1188:1799   */\n      swap3\n      pop\n      swap3\n      pop\n      swap3\n      jump\t// out\n        /* \"#utility.yul\":1804:2092   */\n    tag_27:\n        /* \"#utility.yul\":1845:1848   */\n      0x00\n        /* \"#utility.yul\":1883:1888   */\n      dup2\n        /* \"#utility.yul\":1877:1889   */\n      mload\n        /* \"#utility.yul\":1910:1916   */\n      dup1\n        /* \"#utility.yul\":1905:1908   */\n      dup5\n        /* \"#utility.yul\":1898:1917   */\n      mstore\n        /* \"#utility.yul\":1966:1972   */\n      dup1\n        /* \"#utility.yul\":1959:1963   */\n      0x20\n        /* \"#utility.yul\":1952:1957   */\n      dup5\n        /* \"#utility.yul\":1948:1964   */\n      add\n        /* \"#utility.yul\":1941:1945   */\n      0x20\n        /* \"#utility.yul\":1936:1939   */\n      dup7\n        /* \"#utility.yul\":1932:1946   */\n      add\n        /* \"#utility.yul\":1926:1973   */\n      mcopy\n        /* \"#utility.yul\":2018:2019   */\n      0x00\n        /* \"#utility.yul\":2011:2015   */\n      0x20\n        /* \"#utility.yul\":2002:2008   */\n      dup3\n        /* \"#utility.yul\":1997:2000   */\n      dup7\n        /* \"#utility.yul\":1993:2009   */\n      add\n        /* \"#utility.yul\":1989:2016   */\n      add\n        /* \"#utility.yul\":1982:2020   */\n      mstore\n        /* \"#utility.yul\":2081:2085   */\n      0x20\n        /* \"#utility.yul\":2074:2076   */\n      0x1f\n        /* \"#utility.yul\":2070:2077   */\n      not\n        /* \"#utility.yul\":2065:2067   */\n      0x1f\n        /* \"#utility.yul\":2057:2063   */\n      dup4\n        /* \"#utility.yul\":2053:2068   */\n      add\n        /* \"#utility.yul\":2049:2078   */\n      and\n        /* \"#utility.yul\":2044:2047   */\n      dup6\n        /* \"#utility.yul\":2040:2079   */\n      add\n        /* \"#utility.yul\":2036:2086   */\n      add\n        /* \"#utility.yul\":2029:2086   */\n      swap2\n      pop\n      pop\n        /* \"#utility.yul\":1804:2092   */\n      swap3\n      swap2\n      pop\n      pop\n      jump\t// out\n        /* \"#utility.yul\":2097:2314   */\n    tag_10:\n        /* \"#utility.yul\":2244:2246   */\n      0x20\n        /* \"#utility.yul\":2233:2242   */\n      dup2\n        /* \"#utility.yul\":2226:2247   */\n      mstore\n        /* \"#utility.yul\":2207:2211   */\n      0x00\n        /* \"#utility.yul\":2264:2308   */\n      tag_43\n        /* \"#utility.yul\":2304:2306   */\n      0x20\n        /* \"#utility.yul\":2293:2302   */\n      dup4\n        /* \"#utility.yul\":2289:2307   */\n      add\n        /* \"#utility.yul\":2281:2287   */\n      dup5\n        /* \"#utility.yul\":2264:2308   */\n      tag_27\n      jump\t// in\n        /* \"#utility.yul\":2319:2769   */\n    tag_13:\n        /* \"#utility.yul\":2387:2393   */\n      0x00\n        /* \"#utility.yul\":2440:2442   */\n      0x20\n        /* \"#utility.yul\":2428:2437   */\n      dup3\n        /* \"#utility.yul\":2419:2426   */\n      dup5\n        /* \"#utility.yul\":2415:2438   */\n      sub\n        /* \"#utility.yul\":2411:2443   */\n      slt\n        /* \"#utility.yul\":2408:2460   */\n      iszero\n      tag_54\n      jumpi\n        /* \"#utility.yul\":2456:2457   */\n      0x00\n        /* \"#utility.yul\":2453:2454   */\n      dup1\n        /* \"#utility.yul\":2446:2458   */\n      revert\n        /* \"#utility.yul\":2408:2460   */\n    tag_54:\n        /* \"#utility.yul\":2496:2505   */\n      dup2\n        /* \"#utility.yul\":2483:2506   */\n      calldataload\n        /* \"#utility.yul\":2529:2547   */\n      0xffffffffffffffff\n        /* \"#utility.yul\":2521:2527   */\n      dup2\n        /* \"#utility.yul\":2518:2548   */\n      gt\n        /* \"#utility.yul\":2515:2565   */\n      iszero\n      tag_55\n      jumpi\n        /* \"#utility.yul\":2561:2562   */\n      0x00\n        /* \"#utility.yul\":2558:2559   */\n      dup1\n        /* \"#utility.yul\":2551:2563   */\n      revert\n        /* \"#utility.yul\":2515:2565   */\n    tag_55:\n        /* \"#utility.yul\":2584:2606   */\n      dup3\n      add\n        /* \"#utility.yul\":2637:2641   */\n      0x1f\n        /* \"#utility.yul\":2629:2642   */\n      dup2\n      add\n        /* \"#utility.yul\":2625:2652   */\n      dup5\n      sgt\n        /* \"#utility.yul\":2615:2670   */\n      tag_56\n      jumpi\n        /* \"#utility.yul\":2666:2667   */\n      0x00\n        /* \"#utility.yul\":2663:2664   */\n      dup1\n        /* \"#utility.yul\":2656:2668   */\n      revert\n        /* \"#utility.yul\":2615:2670   */\n    tag_56:\n        /* \"#utility.yul\":2689:2763   */\n      tag_57\n        /* \"#utility.yul\":2755:2762   */\n      dup5\n        /* \"#utility.yul\":2750:2752   */\n      dup3\n        /* \"#utility.yul\":2737:2753   */\n      calldataload\n        /* \"#utility.yul\":2732:2734   */\n      0x20\n        /* \"#utility.yul\":2728:2730   */\n      dup5\n        /* \"#utility.yul\":2724:2735   */\n      add\n        /* \"#utility.yul\":2689:2763   */\n      tag_25\n      jump\t// in\n    tag_57:\n        /* \"#utility.yul\":2679:2763   */\n      swap5\n        /* \"#utility.yul\":2319:2769   */\n      swap4\n      pop\n      pop\n      pop\n      pop\n      jump\t// out\n        /* \"#utility.yul\":2774:3226   */\n    tag_16:\n        /* \"#utility.yul\":2999:3001   */\n      0x60\n        /* \"#utility.yul\":2988:2997   */\n      dup2\n        /* \"#utility.yul\":2981:3002   */\n      mstore\n        /* \"#utility.yul\":2962:2966   */\n      0x00\n        /* \"#utility.yul\":3025:3069   */\n      tag_59\n        /* \"#utility.yul\":3065:3067   */\n      0x60\n        /* \"#utility.yul\":3054:3063   */\n      dup4\n        /* \"#utility.yul\":3050:3068   */\n      add\n        /* \"#utility.yul\":3042:3048   */\n      dup7\n        /* \"#utility.yul\":3025:3069   */\n      tag_27\n      jump\t// in\n    tag_59:\n        /* \"#utility.yul\":3105:3111   */\n      dup5\n        /* \"#utility.yul\":3100:3102   */\n      0x20\n        /* \"#utility.yul\":3089:3098   */\n      dup5\n        /* \"#utility.yul\":3085:3103   */\n      add\n        /* \"#utility.yul\":3078:3112   */\n      mstore\n        /* \"#utility.yul\":3160:3169   */\n      dup3\n        /* \"#utility.yul\":3152:3158   */\n      dup2\n        /* \"#utility.yul\":3148:3170   */\n      sub\n        /* \"#utility.yul\":3143:3145   */\n      0x40\n        /* \"#utility.yul\":3132:3141   */\n      dup5\n        /* \"#utility.yul\":3128:3146   */\n      add\n        /* \"#utility.yul\":3121:3171   */\n      mstore\n        /* \"#utility.yul\":3188:3220   */\n      tag_60\n        /* \"#utility.yul\":3213:3219   */\n      dup2\n        /* \"#utility.yul\":3205:3211   */\n      dup6\n        /* \"#utility.yul\":3188:3220   */\n      tag_27\n      jump\t// in\n    tag_60:\n        /* \"#utility.yul\":3180:3220   */\n      swap7\n        /* \"#utility.yul\":2774:3226   */\n      swap6\n      pop\n      pop\n      pop\n      pop\n      pop\n      pop\n      jump\t// out\n        /* \"#utility.yul\":3231:3692   */\n    tag_28:\n        /* \"#utility.yul\":3285:3290   */\n      0x00\n        /* \"#utility.yul\":3338:3341   */\n      dup3\n        /* \"#utility.yul\":3331:3335   */\n      0x1f\n        /* \"#utility.yul\":3323:3329   */\n      dup4\n        /* \"#utility.yul\":3319:3336   */\n      add\n        /* \"#utility.yul\":3315:3342   */\n      slt\n        /* \"#utility.yul\":3305:3360   */\n      tag_62\n      jumpi\n        /* \"#utility.yul\":3356:3357   */\n      0x00\n        /* \"#utility.yul\":3353:3354   */\n      dup1\n        /* \"#utility.yul\":3346:3358   */\n      revert\n        /* \"#utility.yul\":3305:3360   */\n    tag_62:\n        /* \"#utility.yul\":3385:3391   */\n      dup2\n        /* \"#utility.yul\":3379:3392   */\n      mload\n        /* \"#utility.yul\":3416:3465   */\n      tag_63\n        /* \"#utility.yul\":3432:3464   */\n      tag_39\n        /* \"#utility.yul\":3461:3463   */\n      dup3\n        /* \"#utility.yul\":3432:3464   */\n      tag_24\n      jump\t// in\n        /* \"#utility.yul\":3416:3465   */\n    tag_63:\n        /* \"#utility.yul\":3490:3492   */\n      dup2\n        /* \"#utility.yul\":3481:3488   */\n      dup2\n        /* \"#utility.yul\":3474:3493   */\n      mstore\n        /* \"#utility.yul\":3536:3539   */\n      dup5\n        /* \"#utility.yul\":3529:3533   */\n      0x20\n        /* \"#utility.yul\":3524:3526   */\n      dup4\n        /* \"#utility.yul\":3516:3522   */\n      dup7\n        /* \"#utility.yul\":3512:3527   */\n      add\n        /* \"#utility.yul\":3508:3534   */\n      add\n        /* \"#utility.yul\":3505:3540   */\n      gt\n        /* \"#utility.yul\":3502:3557   */\n      iszero\n      tag_65\n      jumpi\n        /* \"#utility.yul\":3553:3554   */\n      0x00\n        /* \"#utility.yul\":3550:3551   */\n      dup1\n        /* \"#utility.yul\":3543:3555   */\n      revert\n        /* \"#utility.yul\":3502:3557   */\n    tag_65:\n        /* \"#utility.yul\":3611:3613   */\n      dup2\n        /* \"#utility.yul\":3604:3608   */\n      0x20\n        /* \"#utility.yul\":3596:3602   */\n      dup6\n        /* \"#utility.yul\":3592:3609   */\n      add\n        /* \"#utility.yul\":3585:3589   */\n      0x20\n        /* \"#utility.yul\":3576:3583   */\n      dup4\n        /* \"#utility.yul\":3572:3590   */\n      add\n        /* \"#utility.yul\":3566:3614   */\n      mcopy\n        /* \"#utility.yul\":3659:3660   */\n      0x00\n        /* \"#utility.yul\":3634:3650   */\n      swap2\n      dup2\n      add\n        /* \"#utility.yul\":3652:3656   */\n      0x20\n        /* \"#utility.yul\":3630:3657   */\n      add\n        /* \"#utility.yul\":3623:3661   */\n      swap2\n      swap1\n      swap2\n      mstore\n        /* \"#utility.yul\":3638:3645   */\n      swap4\n        /* \"#utility.yul\":3231:3692   */\n      swap3\n      pop\n      pop\n      pop\n      jump\t// out\n        /* \"#utility.yul\":3697:4320   */\n    tag_21:\n        /* \"#utility.yul\":3805:3811   */\n      0x00\n        /* \"#utility.yul\":3813:3819   */\n      dup1\n        /* \"#utility.yul\":3821:3827   */\n      0x00\n        /* \"#utility.yul\":3874:3876   */\n      0x60\n        /* \"#utility.yul\":3862:3871   */\n      dup5\n        /* \"#utility.yul\":3853:3860   */\n      dup7\n        /* \"#utility.yul\":3849:3872   */\n      sub\n        /* \"#utility.yul\":3845:3877   */\n      slt\n        /* \"#utility.yul\":3842:3894   */\n      iszero\n      tag_67\n      jumpi\n        /* \"#utility.yul\":3890:3891   */\n      0x00\n        /* \"#utility.yul\":3887:3888   */\n      dup1\n        /* \"#utility.yul\":3880:3892   */\n      revert\n        /* \"#utility.yul\":3842:3894   */\n    tag_67:\n        /* \"#utility.yul\":3923:3932   */\n      dup4\n        /* \"#utility.yul\":3917:3933   */\n      mload\n        /* \"#utility.yul\":3952:3970   */\n      0xffffffffffffffff\n        /* \"#utility.yul\":3993:3995   */\n      dup1\n        /* \"#utility.yul\":3985:3991   */\n      dup3\n        /* \"#utility.yul\":3982:3996   */\n      gt\n        /* \"#utility.yul\":3979:4013   */\n      iszero\n      tag_68\n      jumpi\n        /* \"#utility.yul\":4009:4010   */\n      0x00\n        /* \"#utility.yul\":4006:4007   */\n      dup1\n        /* \"#utility.yul\":3999:4011   */\n      revert\n        /* \"#utility.yul\":3979:4013   */\n    tag_68:\n        /* \"#utility.yul\":4032:4093   */\n      tag_69\n        /* \"#utility.yul\":4085:4092   */\n      dup8\n        /* \"#utility.yul\":4076:4082   */\n      dup4\n        /* \"#utility.yul\":4065:4074   */\n      dup9\n        /* \"#utility.yul\":4061:4083   */\n      add\n        /* \"#utility.yul\":4032:4093   */\n      tag_28\n      jump\t// in\n    tag_69:\n        /* \"#utility.yul\":4022:4093   */\n      swap5\n      pop\n        /* \"#utility.yul\":4133:4135   */\n      0x20\n        /* \"#utility.yul\":4122:4131   */\n      dup7\n        /* \"#utility.yul\":4118:4136   */\n      add\n        /* \"#utility.yul\":4112:4137   */\n      mload\n        /* \"#utility.yul\":4102:4137   */\n      swap4\n      pop\n        /* \"#utility.yul\":4183:4185   */\n      0x40\n        /* \"#utility.yul\":4172:4181   */\n      dup7\n        /* \"#utility.yul\":4168:4186   */\n      add\n        /* \"#utility.yul\":4162:4187   */\n      mload\n        /* \"#utility.yul\":4146:4187   */\n      swap2\n      pop\n        /* \"#utility.yul\":4212:4214   */\n      dup1\n        /* \"#utility.yul\":4202:4210   */\n      dup3\n        /* \"#utility.yul\":4199:4215   */\n      gt\n        /* \"#utility.yul\":4196:4232   */\n      iszero\n      tag_70\n      jumpi\n        /* \"#utility.yul\":4228:4229   */\n      0x00\n        /* \"#utility.yul\":4225:4226   */\n      dup1\n        /* \"#utility.yul\":4218:4230   */\n      revert\n        /* \"#utility.yul\":4196:4232   */\n    tag_70:\n      pop\n        /* \"#utility.yul\":4251:4314   */\n      tag_49\n        /* \"#utility.yul\":4306:4313   */\n      dup7\n        /* \"#utility.yul\":4295:4303   */\n      dup3\n        /* \"#utility.yul\":4284:4293   */\n      dup8\n        /* \"#utility.yul\":4280:4304   */\n      add\n        /* \"#utility.yul\":4251:4314   */\n      tag_28\n      jump\t// in\n\n    auxdata: 0xa26469706673582212205e92f1ef2502f006483b6f484ce70c095c4fdc78dc0a9b30ed1e82a3a0a229fc64736f6c63430008190033\n}\n",
				"bytecode": {
					"linkReferences": {},
					"object": "6080604052348015600e575f80fd5b506103ae8061001c5f395ff3fe608060405234801561000f575f80fd5b5060043610610034575f3560e01c80633b7fa26514610038578063bac1d57214610061575b5f80fd5b61004b6100463660046101a4565b610083565b604051610058919061023a565b60405180910390f35b61007461006f36600461024c565b6100b2565b60405161005893929190610299565b606083838360405160200161009a93929190610299565b60405160208183030381529060405290509392505050565b60605f6060838060200190518101906100cb919061031a565b9196909550909350915050565b634e487b7160e01b5f52604160045260245ffd5b604051601f8201601f1916810167ffffffffffffffff81118282101715610115576101156100d8565b604052919050565b5f67ffffffffffffffff821115610136576101366100d8565b50601f01601f191660200190565b5f6101566101518461011d565b6100ec565b9050828152838383011115610169575f80fd5b828260208301375f602084830101529392505050565b5f82601f83011261018e575f80fd5b61019d83833560208501610144565b9392505050565b5f805f606084860312156101b6575f80fd5b833567ffffffffffffffff808211156101cd575f80fd5b6101d98783880161017f565b94506020860135935060408601359150808211156101f5575f80fd5b506102028682870161017f565b9150509250925092565b5f81518084528060208401602086015e5f602082860101526020601f19601f83011685010191505092915050565b602081525f61019d602083018461020c565b5f6020828403121561025c575f80fd5b813567ffffffffffffffff811115610272575f80fd5b8201601f81018413610282575f80fd5b61029184823560208401610144565b949350505050565b606081525f6102ab606083018661020c565b84602084015282810360408401526102c3818561020c565b9695505050505050565b5f82601f8301126102dc575f80fd5b81516102ea6101518261011d565b8181528460208386010111156102fe575f80fd5b8160208501602083015e5f918101602001919091529392505050565b5f805f6060848603121561032c575f80fd5b835167ffffffffffffffff80821115610343575f80fd5b61034f878388016102cd565b945060208601519350604086015191508082111561036b575f80fd5b50610202868287016102cd56fea26469706673582212205e92f1ef2502f006483b6f484ce70c095c4fdc78dc0a9b30ed1e82a3a0a229fc64736f6c63430008190033",
					"opcodes": "PUSH1 0x80 PUSH1 0x40 MSTORE CALLVALUE DUP1 ISZERO PUSH1 0xE JUMPI PUSH0 DUP1 REVERT JUMPDEST POP PUSH2 0x3AE DUP1 PUSH2 0x1C PUSH0 CODECOPY PUSH0 RETURN INVALID PUSH1 0x80 PUSH1 0x40 MSTORE CALLVALUE DUP1 ISZERO PUSH2 0xF JUMPI PUSH0 DUP1 REVERT JUMPDEST POP PUSH1 0x4 CALLDATASIZE LT PUSH2 0x34 JUMPI PUSH0 CALLDATALOAD PUSH1 0xE0 SHR DUP1 PUSH4 0x3B7FA265 EQ PUSH2 0x38 JUMPI DUP1 PUSH4 0xBAC1D572 EQ PUSH2 0x61 JUMPI JUMPDEST PUSH0 DUP1 REVERT JUMPDEST PUSH2 0x4B PUSH2 0x46 CALLDATASIZE PUSH1 0x4 PUSH2 0x1A4 JUMP JUMPDEST PUSH2 0x83 JUMP JUMPDEST PUSH1 0x40 MLOAD PUSH2 0x58 SWAP2 SWAP1 PUSH2 0x23A JUMP JUMPDEST PUSH1 0x40 MLOAD DUP1 SWAP2 SUB SWAP1 RETURN JUMPDEST PUSH2 0x74 PUSH2 0x6F CALLDATASIZE PUSH1 0x4 PUSH2 0x24C JUMP JUMPDEST PUSH2 0xB2 JUMP JUMPDEST PUSH1 0x40 MLOAD PUSH2 0x58 SWAP4 SWAP3 SWAP2 SWAP1 PUSH2 0x299 JUMP JUMPDEST PUSH1 0x60 DUP4 DUP4 DUP4 PUSH1 0x40 MLOAD PUSH1 0x20 ADD PUSH2 0x9A SWAP4 SWAP3 SWAP2 SWAP1 PUSH2 0x299 JUMP JUMPDEST PUSH1 0x40 MLOAD PUSH1 0x20 DUP2 DUP4 SUB SUB DUP2 MSTORE SWAP1 PUSH1 0x40 MSTORE SWAP1 POP SWAP4 SWAP3 POP POP POP JUMP JUMPDEST PUSH1 0x60 PUSH0 PUSH1 0x60 DUP4 DUP1 PUSH1 0x20 ADD SWAP1 MLOAD DUP2 ADD SWAP1 PUSH2 0xCB SWAP2 SWAP1 PUSH2 0x31A JUMP JUMPDEST SWAP2 SWAP7 SWAP1 SWAP6 POP SWAP1 SWAP4 POP SWAP2 POP POP JUMP JUMPDEST PUSH4 0x4E487B71 PUSH1 0xE0 SHL PUSH0 MSTORE PUSH1 0x41 PUSH1 0x4 MSTORE PUSH1 0x24 PUSH0 REVERT JUMPDEST PUSH1 0x40 MLOAD PUSH1 0x1F DUP3 ADD PUSH1 0x1F NOT AND DUP2 ADD PUSH8 0xFFFFFFFFFFFFFFFF DUP2 GT DUP3 DUP3 LT OR ISZERO PUSH2 0x115 JUMPI PUSH2 0x115 PUSH2 0xD8 JUMP JUMPDEST PUSH1 0x40 MSTORE SWAP2 SWAP1 POP JUMP JUMPDEST PUSH0 PUSH8 0xFFFFFFFFFFFFFFFF DUP3 GT ISZERO PUSH2 0x136 JUMPI PUSH2 0x136 PUSH2 0xD8 JUMP JUMPDEST POP PUSH1 0x1F ADD PUSH1 0x1F NOT AND PUSH1 0x20 ADD SWAP1 JUMP JUMPDEST PUSH0 PUSH2 0x156 PUSH2 0x151 DUP5 PUSH2 0x11D JUMP JUMPDEST PUSH2 0xEC JUMP JUMPDEST SWAP1 POP DUP3 DUP2 MSTORE DUP4 DUP4 DUP4 ADD GT ISZERO PUSH2 0x169 JUMPI PUSH0 DUP1 REVERT JUMPDEST DUP3 DUP3 PUSH1 0x20 DUP4 ADD CALLDATACOPY PUSH0 PUSH1 0x20 DUP5 DUP4 ADD ADD MSTORE SWAP4 SWAP3 POP POP POP JUMP JUMPDEST PUSH0 DUP3 PUSH1 0x1F DUP4 ADD SLT PUSH2 0x18E JUMPI PUSH0 DUP1 REVERT JUMPDEST PUSH2 0x19D DUP4 DUP4 CALLDATALOAD PUSH1 0x20 DUP6 ADD PUSH2 0x144 JUMP JUMPDEST SWAP4 SWAP3 POP POP POP JUMP JUMPDEST PUSH0 DUP1 PUSH0 PUSH1 0x60 DUP5 DUP7 SUB SLT ISZERO PUSH2 0x1B6 JUMPI PUSH0 DUP1 REVERT JUMPDEST DUP4 CALLDATALOAD PUSH8 0xFFFFFFFFFFFFFFFF DUP1 DUP3 GT ISZERO PUSH2 0x1CD JUMPI PUSH0 DUP1 REVERT JUMPDEST PUSH2 0x1D9 DUP8 DUP4 DUP9 ADD PUSH2 0x17F JUMP JUMPDEST SWAP5 POP PUSH1 0x20 DUP7 ADD CALLDATALOAD SWAP4 POP PUSH1 0x40 DUP7 ADD CALLDATALOAD SWAP2 POP DUP1 DUP3 GT ISZERO PUSH2 0x1F5 JUMPI PUSH0 DUP1 REVERT JUMPDEST POP PUSH2 0x202 DUP7 DUP3 DUP8 ADD PUSH2 0x17F JUMP JUMPDEST SWAP2 POP POP SWAP3 POP SWAP3 POP SWAP3 JUMP JUMPDEST PUSH0 DUP2 MLOAD DUP1 DUP5 MSTORE DUP1 PUSH1 0x20 DUP5 ADD PUSH1 0x20 DUP7 ADD MCOPY PUSH0 PUSH1 0x20 DUP3 DUP7 ADD ADD MSTORE PUSH1 0x20 PUSH1 0x1F NOT PUSH1 0x1F DUP4 ADD AND DUP6 ADD ADD SWAP2 POP POP SWAP3 SWAP2 POP POP JUMP JUMPDEST PUSH1 0x20 DUP2 MSTORE PUSH0 PUSH2 0x19D PUSH1 0x20 DUP4 ADD DUP5 PUSH2 0x20C JUMP JUMPDEST PUSH0 PUSH1 0x20 DUP3 DUP5 SUB SLT ISZERO PUSH2 0x25C JUMPI PUSH0 DUP1 REVERT JUMPDEST DUP2 CALLDATALOAD PUSH8 0xFFFFFFFFFFFFFFFF DUP2 GT ISZERO PUSH2 0x272 JUMPI PUSH0 DUP1 REVERT JUMPDEST DUP3 ADD PUSH1 0x1F DUP2 ADD DUP5 SGT PUSH2 0x282 JUMPI PUSH0 DUP1 REVERT JUMPDEST PUSH2 0x291 DUP5 DUP3 CALLDATALOAD PUSH1 0x20 DUP5 ADD PUSH2 0x144 JUMP JUMPDEST SWAP5 SWAP4 POP POP POP POP JUMP JUMPDEST PUSH1 0x60 DUP2 MSTORE PUSH0 PUSH2 0x2AB PUSH1 0x60 DUP4 ADD DUP7 PUSH2 0x20C JUMP JUMPDEST DUP5 PUSH1 0x20 DUP5 ADD MSTORE DUP3 DUP2 SUB PUSH1 0x40 DUP5 ADD MSTORE PUSH2 0x2C3 DUP2 DUP6 PUSH2 0x20C JUMP JUMPDEST SWAP7 SWAP6 POP POP POP POP POP POP JUMP JUMPDEST PUSH0 DUP3 PUSH1 0x1F DUP4 ADD SLT PUSH2 0x2DC JUMPI PUSH0 DUP1 REVERT JUMPDEST DUP2 MLOAD PUSH2 0x2EA PUSH2 0x151 DUP3 PUSH2 0x11D JUMP JUMPDEST DUP2 DUP2 MSTORE DUP5 PUSH1 0x20 DUP4 DUP7 ADD ADD GT ISZERO PUSH2 0x2FE JUMPI PUSH0 DUP1 REVERT JUMPDEST DUP2 PUSH1 0x20 DUP6 ADD PUSH1 0x20 DUP4 ADD MCOPY PUSH0 SWAP2 DUP2 ADD PUSH1 0x20 ADD SWAP2 SWAP1 SWAP2 MSTORE SWAP4 SWAP3 POP POP POP JUMP JUMPDEST PUSH0 DUP1 PUSH0 PUSH1 0x60 DUP5 DUP7 SUB SLT ISZERO PUSH2 0x32C JUMPI PUSH0 DUP1 REVERT JUMPDEST DUP4 MLOAD PUSH8 0xFFFFFFFFFFFFFFFF DUP1 DUP3 GT ISZERO PUSH2 0x343 JUMPI PUSH0 DUP1 REVERT JUMPDEST PUSH2 0x34F DUP8 DUP4 DUP9 ADD PUSH2 0x2CD JUMP JUMPDEST SWAP5 POP PUSH1 0x20 DUP7 ADD MLOAD SWAP4 POP PUSH1 0x40 DUP7 ADD MLOAD SWAP2 POP DUP1 DUP3 GT ISZERO PUSH2 0x36B JUMPI PUSH0 DUP1 REVERT JUMPDEST POP PUSH2 0x202 DUP7 DUP3 DUP8 ADD PUSH2 0x2CD JUMP INVALID LOG2 PUSH5 0x6970667358 0x22 SLT KECCAK256 MCOPY SWAP3 CALL 0xEF 0x25 MUL CREATE MOD BASEFEE EXTCODESIZE PUSH16 0x484CE70C095C4FDC78DC0A9B30ED1E82 LOG3 LOG0 LOG2 0x29 0xFC PUSH5 0x736F6C6343 STOP ADDMOD NOT STOP CALLER "
				},
				"gasEstimates": {
					"creation": {
						"codeDepositCost": "188400",
						"executionCost": "230",
						"totalCost": "188630"
					},
					"external": {
						"decode1(bytes)": "infinite",
						"encode(string,uint256,string)": "infinite"
					}
				},
				"methodIdentifiers": {
					"decode1(bytes)": "bac1d572",
					"encode(string,uint256,string)": "3b7fa265"
				}
			},
			"storageLayout": {
				"storage": [],
				"types": null
			},
			"userdoc": {
				"kind": "user",
				"methods": {},
				"version": 1
			}
		}
	}
}