{
	"data": {
		"bytecode": {
			"linkReferences": {},
			"object": "6080604052348015600e575f80fd5b5060a880601a5f395ff3fe6080604052348015600e575f80fd5b50600436106026575f3560e01c8063243da18c14602a575b5f80fd5b60306032565b005b60408051338152326020820152308183015290517fc90ed2a0abbce0ddd0cfd1fd303f15bf1a3860b32002dc1ed37873ea889488309181900360600190a156fea2646970667358221220b2dc07b55ce78c3c0b637c59beb507657609d8a367e715987c1f89aa59aa3cee64736f6c63430008190033",
			"opcodes": "PUSH1 0x80 PUSH1 0x40 MSTORE CALLVALUE DUP1 ISZERO PUSH1 0xE JUMPI PUSH0 DUP1 REVERT JUMPDEST POP PUSH1 0xA8 DUP1 PUSH1 0x1A PUSH0 CODECOPY PUSH0 RETURN INVALID PUSH1 0x80 PUSH1 0x40 MSTORE CALLVALUE DUP1 ISZERO PUSH1 0xE JUMPI PUSH0 DUP1 REVERT JUMPDEST POP PUSH1 0x4 CALLDATASIZE LT PUSH1 0x26 JUMPI PUSH0 CALLDATALOAD PUSH1 0xE0 SHR DUP1 PUSH4 0x243DA18C EQ PUSH1 0x2A JUMPI JUMPDEST PUSH0 DUP1 REVERT JUMPDEST PUSH1 0x30 PUSH1 0x32 JUMP JUMPDEST STOP JUMPDEST PUSH1 0x40 DUP1 MLOAD CALLER DUP2 MSTORE ORIGIN PUSH1 0x20 DUP3 ADD MSTORE ADDRESS DUP2 DUP4 ADD MSTORE SWAP1 MLOAD PUSH32 0xC90ED2A0ABBCE0DDD0CFD1FD303F15BF1A3860B32002DC1ED37873EA88948830 SWAP2 DUP2 SWAP1 SUB PUSH1 0x60 ADD SWAP1 LOG1 JUMP INVALID LOG2 PUSH5 0x6970667358 0x22 SLT KECCAK256 0xB2 0xDC SMOD 0xB5 TLOAD 0xE7 DUP13 EXTCODECOPY SIGNEXTEND PUSH4 0x7C59BEB5 SMOD PUSH6 0x7609D8A367E7 ISZERO SWAP9 PUSH29 0x1F89AA59AA3CEE64736F6C634300081900330000000000000000000000 "
		},
		"gasEstimates": {
			"creation": {
				"codeDepositCost": "33600",
				"executionCost": "85",
				"totalCost": "33685"
			},
			"external": {
				"callThis()": "1726"
			}
		},
		"methodIdentifiers": {
			"callThis()": "243da18c"
		}
	},
	"abi": [
		{
			"anonymous": false,
			"inputs": [
				{
					"indexed": false,
					"internalType": "address",
					"name": "sender",
					"type": "address"
				},
				{
					"indexed": false,
					"internalType": "address",
					"name": "origin",
					"type": "address"
				},
				{
					"indexed": false,
					"internalType": "address",
					"name": "from",
					"type": "address"
				}
			],
			"name": "callEvent",
			"type": "event"
		},
		{
			"inputs": [],
			"name": "callThis",
			"outputs": [],
			"stateMutability": "nonpayable",
			"type": "function"
		}
	]
}