{
	"data": {
		"bytecode": {
			"linkReferences": {},
			"object": "60c0604052600a608090815269213637b1b5b1b430b4b760b11b60a0525f9061002890826100d2565b50348015610034575f80fd5b50610191565b634e487b7160e01b5f52604160045260245ffd5b600181811c9082168061006257607f821691505b60208210810361008057634e487b7160e01b5f52602260045260245ffd5b50919050565b601f8211156100cd57805f5260205f20601f840160051c810160208510156100ab5750805b601f840160051c820191505b818110156100ca575f81556001016100b7565b50505b505050565b81516001600160401b038111156100eb576100eb61003a565b6100ff816100f9845461004e565b84610086565b602080601f831160018114610132575f841561011b5750858301515b5f19600386901b1c1916600185901b178555610189565b5f85815260208120601f198616915b8281101561016057888601518255948401946001909101908401610141565b508582101561017d57878501515f19600388901b60f8161c191681555b505060018460011b0185555b505050505050565b61045a8061019e5f395ff3fe608060405260043610610028575f3560e01c8063438328e91461002c57806359f0bd1b14610059575b5f80fd5b61003f61003a3660046101db565b61007a565b604080519283526020830191909152015b60405180910390f35b348015610064575f80fd5b5061006d61013c565b6040516100509190610286565b5f805f5a905034670de0b6b3a764000014610093575f80fd5b5f61009e858261033f565b5060405133905f90829034908381818185875af1925050503d805f81146100e0576040519150601f19603f3d011682016040523d82523d5f602084013e6100e5565b606091505b50509050806101245760405162461bcd60e51b81526020600482015260076024820152666661696c75726560c81b604482015260640160405180910390fd5b825a61013090856103ff565b94509450505050915091565b5f8054610148906102bb565b80601f0160208091040260200160405190810160405280929190818152602001828054610174906102bb565b80156101bf5780601f10610196576101008083540402835291602001916101bf565b820191905f5260205f20905b8154815290600101906020018083116101a257829003601f168201915b505050505081565b634e487b7160e01b5f52604160045260245ffd5b5f602082840312156101eb575f80fd5b813567ffffffffffffffff80821115610202575f80fd5b818401915084601f830112610215575f80fd5b813581811115610227576102276101c7565b604051601f8201601f19908116603f0116810190838211818310171561024f5761024f6101c7565b81604052828152876020848701011115610267575f80fd5b826020860160208301375f928101602001929092525095945050505050565b602081525f82518060208401528060208501604085015e5f604082850101526040601f19601f83011684010191505092915050565b600181811c908216806102cf57607f821691505b6020821081036102ed57634e487b7160e01b5f52602260045260245ffd5b50919050565b601f82111561033a57805f5260205f20601f840160051c810160208510156103185750805b601f840160051c820191505b81811015610337575f8155600101610324565b50505b505050565b815167ffffffffffffffff811115610359576103596101c7565b61036d8161036784546102bb565b846102f3565b602080601f8311600181146103a0575f84156103895750858301515b5f19600386901b1c1916600185901b1785556103f7565b5f85815260208120601f198616915b828110156103ce578886015182559484019460019091019084016103af565b50858210156103eb57878501515f19600388901b60f8161c191681555b505060018460011b0185555b505050505050565b8181038181111561041e57634e487b7160e01b5f52601160045260245ffd5b9291505056fea26469706673582212208e668f23f5e78102573b64152ab30909a396ef171f9db8de24280e677dcbc73964736f6c63430008190033",
			"opcodes": "PUSH1 0xC0 PUSH1 0x40 MSTORE PUSH1 0xA PUSH1 0x80 SWAP1 DUP2 MSTORE PUSH10 0x213637B1B5B1B430B4B7 PUSH1 0xB1 SHL PUSH1 0xA0 MSTORE PUSH0 SWAP1 PUSH2 0x28 SWAP1 DUP3 PUSH2 0xD2 JUMP JUMPDEST POP CALLVALUE DUP1 ISZERO PUSH2 0x34 JUMPI PUSH0 DUP1 REVERT JUMPDEST POP PUSH2 0x191 JUMP JUMPDEST PUSH4 0x4E487B71 PUSH1 0xE0 SHL PUSH0 MSTORE PUSH1 0x41 PUSH1 0x4 MSTORE PUSH1 0x24 PUSH0 REVERT JUMPDEST PUSH1 0x1 DUP2 DUP2 SHR SWAP1 DUP3 AND DUP1 PUSH2 0x62 JUMPI PUSH1 0x7F DUP3 AND SWAP2 POP JUMPDEST PUSH1 0x20 DUP3 LT DUP2 SUB PUSH2 0x80 JUMPI PUSH4 0x4E487B71 PUSH1 0xE0 SHL PUSH0 MSTORE PUSH1 0x22 PUSH1 0x4 MSTORE PUSH1 0x24 PUSH0 REVERT JUMPDEST POP SWAP2 SWAP1 POP JUMP JUMPDEST PUSH1 0x1F DUP3 GT ISZERO PUSH2 0xCD JUMPI DUP1 PUSH0 MSTORE PUSH1 0x20 PUSH0 KECCAK256 PUSH1 0x1F DUP5 ADD PUSH1 0x5 SHR DUP2 ADD PUSH1 0x20 DUP6 LT ISZERO PUSH2 0xAB JUMPI POP DUP1 JUMPDEST PUSH1 0x1F DUP5 ADD PUSH1 0x5 SHR DUP3 ADD SWAP2 POP JUMPDEST DUP2 DUP2 LT ISZERO PUSH2 0xCA JUMPI PUSH0 DUP2 SSTORE PUSH1 0x1 ADD PUSH2 0xB7 JUMP JUMPDEST POP POP JUMPDEST POP POP POP JUMP JUMPDEST DUP2 MLOAD PUSH1 0x1 PUSH1 0x1 PUSH1 0x40 SHL SUB DUP2 GT ISZERO PUSH2 0xEB JUMPI PUSH2 0xEB PUSH2 0x3A JUMP JUMPDEST PUSH2 0xFF DUP2 PUSH2 0xF9 DUP5 SLOAD PUSH2 0x4E JUMP JUMPDEST DUP5 PUSH2 0x86 JUMP JUMPDEST PUSH1 0x20 DUP1 PUSH1 0x1F DUP4 GT PUSH1 0x1 DUP2 EQ PUSH2 0x132 JUMPI PUSH0 DUP5 ISZERO PUSH2 0x11B JUMPI POP DUP6 DUP4 ADD MLOAD JUMPDEST PUSH0 NOT PUSH1 0x3 DUP7 SWAP1 SHL SHR NOT AND PUSH1 0x1 DUP6 SWAP1 SHL OR DUP6 SSTORE PUSH2 0x189 JUMP JUMPDEST PUSH0 DUP6 DUP2 MSTORE PUSH1 0x20 DUP2 KECCAK256 PUSH1 0x1F NOT DUP7 AND SWAP2 JUMPDEST DUP3 DUP2 LT ISZERO PUSH2 0x160 JUMPI DUP9 DUP7 ADD MLOAD DUP3 SSTORE SWAP5 DUP5 ADD SWAP5 PUSH1 0x1 SWAP1 SWAP2 ADD SWAP1 DUP5 ADD PUSH2 0x141 JUMP JUMPDEST POP DUP6 DUP3 LT ISZERO PUSH2 0x17D JUMPI DUP8 DUP6 ADD MLOAD PUSH0 NOT PUSH1 0x3 DUP9 SWAP1 SHL PUSH1 0xF8 AND SHR NOT AND DUP2 SSTORE JUMPDEST POP POP PUSH1 0x1 DUP5 PUSH1 0x1 SHL ADD DUP6 SSTORE JUMPDEST POP POP POP POP POP POP JUMP JUMPDEST PUSH2 0x45A DUP1 PUSH2 0x19E PUSH0 CODECOPY PUSH0 RETURN INVALID PUSH1 0x80 PUSH1 0x40 MSTORE PUSH1 0x4 CALLDATASIZE LT PUSH2 0x28 JUMPI PUSH0 CALLDATALOAD PUSH1 0xE0 SHR DUP1 PUSH4 0x438328E9 EQ PUSH2 0x2C JUMPI DUP1 PUSH4 0x59F0BD1B EQ PUSH2 0x59 JUMPI JUMPDEST PUSH0 DUP1 REVERT JUMPDEST PUSH2 0x3F PUSH2 0x3A CALLDATASIZE PUSH1 0x4 PUSH2 0x1DB JUMP JUMPDEST PUSH2 0x7A JUMP JUMPDEST PUSH1 0x40 DUP1 MLOAD SWAP3 DUP4 MSTORE PUSH1 0x20 DUP4 ADD SWAP2 SWAP1 SWAP2 MSTORE ADD JUMPDEST PUSH1 0x40 MLOAD DUP1 SWAP2 SUB SWAP1 RETURN JUMPDEST CALLVALUE DUP1 ISZERO PUSH2 0x64 JUMPI PUSH0 DUP1 REVERT JUMPDEST POP PUSH2 0x6D PUSH2 0x13C JUMP JUMPDEST PUSH1 0x40 MLOAD PUSH2 0x50 SWAP2 SWAP1 PUSH2 0x286 JUMP JUMPDEST PUSH0 DUP1 PUSH0 GAS SWAP1 POP CALLVALUE PUSH8 0xDE0B6B3A7640000 EQ PUSH2 0x93 JUMPI PUSH0 DUP1 REVERT JUMPDEST PUSH0 PUSH2 0x9E DUP6 DUP3 PUSH2 0x33F JUMP JUMPDEST POP PUSH1 0x40 MLOAD CALLER SWAP1 PUSH0 SWAP1 DUP3 SWAP1 CALLVALUE SWAP1 DUP4 DUP2 DUP2 DUP2 DUP6 DUP8 GAS CALL SWAP3 POP POP POP RETURNDATASIZE DUP1 PUSH0 DUP2 EQ PUSH2 0xE0 JUMPI PUSH1 0x40 MLOAD SWAP2 POP PUSH1 0x1F NOT PUSH1 0x3F RETURNDATASIZE ADD AND DUP3 ADD PUSH1 0x40 MSTORE RETURNDATASIZE DUP3 MSTORE RETURNDATASIZE PUSH0 PUSH1 0x20 DUP5 ADD RETURNDATACOPY PUSH2 0xE5 JUMP JUMPDEST PUSH1 0x60 SWAP2 POP JUMPDEST POP POP SWAP1 POP DUP1 PUSH2 0x124 JUMPI PUSH1 0x40 MLOAD PUSH3 0x461BCD PUSH1 0xE5 SHL DUP2 MSTORE PUSH1 0x20 PUSH1 0x4 DUP3 ADD MSTORE PUSH1 0x7 PUSH1 0x24 DUP3 ADD MSTORE PUSH7 0x6661696C757265 PUSH1 0xC8 SHL PUSH1 0x44 DUP3 ADD MSTORE PUSH1 0x64 ADD PUSH1 0x40 MLOAD DUP1 SWAP2 SUB SWAP1 REVERT JUMPDEST DUP3 GAS PUSH2 0x130 SWAP1 DUP6 PUSH2 0x3FF JUMP JUMPDEST SWAP5 POP SWAP5 POP POP POP POP SWAP2 POP SWAP2 JUMP JUMPDEST PUSH0 DUP1 SLOAD PUSH2 0x148 SWAP1 PUSH2 0x2BB JUMP JUMPDEST DUP1 PUSH1 0x1F ADD PUSH1 0x20 DUP1 SWAP2 DIV MUL PUSH1 0x20 ADD PUSH1 0x40 MLOAD SWAP1 DUP2 ADD PUSH1 0x40 MSTORE DUP1 SWAP3 SWAP2 SWAP1 DUP2 DUP2 MSTORE PUSH1 0x20 ADD DUP3 DUP1 SLOAD PUSH2 0x174 SWAP1 PUSH2 0x2BB JUMP JUMPDEST DUP1 ISZERO PUSH2 0x1BF JUMPI DUP1 PUSH1 0x1F LT PUSH2 0x196 JUMPI PUSH2 0x100 DUP1 DUP4 SLOAD DIV MUL DUP4 MSTORE SWAP2 PUSH1 0x20 ADD SWAP2 PUSH2 0x1BF JUMP JUMPDEST DUP3 ADD SWAP2 SWAP1 PUSH0 MSTORE PUSH1 0x20 PUSH0 KECCAK256 SWAP1 JUMPDEST DUP2 SLOAD DUP2 MSTORE SWAP1 PUSH1 0x1 ADD SWAP1 PUSH1 0x20 ADD DUP1 DUP4 GT PUSH2 0x1A2 JUMPI DUP3 SWAP1 SUB PUSH1 0x1F AND DUP3 ADD SWAP2 JUMPDEST POP POP POP POP POP DUP2 JUMP JUMPDEST PUSH4 0x4E487B71 PUSH1 0xE0 SHL PUSH0 MSTORE PUSH1 0x41 PUSH1 0x4 MSTORE PUSH1 0x24 PUSH0 REVERT JUMPDEST PUSH0 PUSH1 0x20 DUP3 DUP5 SUB SLT ISZERO PUSH2 0x1EB JUMPI PUSH0 DUP1 REVERT JUMPDEST DUP2 CALLDATALOAD PUSH8 0xFFFFFFFFFFFFFFFF DUP1 DUP3 GT ISZERO PUSH2 0x202 JUMPI PUSH0 DUP1 REVERT JUMPDEST DUP2 DUP5 ADD SWAP2 POP DUP5 PUSH1 0x1F DUP4 ADD SLT PUSH2 0x215 JUMPI PUSH0 DUP1 REVERT JUMPDEST DUP2 CALLDATALOAD DUP2 DUP2 GT ISZERO PUSH2 0x227 JUMPI PUSH2 0x227 PUSH2 0x1C7 JUMP JUMPDEST PUSH1 0x40 MLOAD PUSH1 0x1F DUP3 ADD PUSH1 0x1F NOT SWAP1 DUP2 AND PUSH1 0x3F ADD AND DUP2 ADD SWAP1 DUP4 DUP3 GT DUP2 DUP4 LT OR ISZERO PUSH2 0x24F JUMPI PUSH2 0x24F PUSH2 0x1C7 JUMP JUMPDEST DUP2 PUSH1 0x40 MSTORE DUP3 DUP2 MSTORE DUP8 PUSH1 0x20 DUP5 DUP8 ADD ADD GT ISZERO PUSH2 0x267 JUMPI PUSH0 DUP1 REVERT JUMPDEST DUP3 PUSH1 0x20 DUP7 ADD PUSH1 0x20 DUP4 ADD CALLDATACOPY PUSH0 SWAP3 DUP2 ADD PUSH1 0x20 ADD SWAP3 SWAP1 SWAP3 MSTORE POP SWAP6 SWAP5 POP POP POP POP POP JUMP JUMPDEST PUSH1 0x20 DUP2 MSTORE PUSH0 DUP3 MLOAD DUP1 PUSH1 0x20 DUP5 ADD MSTORE DUP1 PUSH1 0x20 DUP6 ADD PUSH1 0x40 DUP6 ADD MCOPY PUSH0 PUSH1 0x40 DUP3 DUP6 ADD ADD MSTORE PUSH1 0x40 PUSH1 0x1F NOT PUSH1 0x1F DUP4 ADD AND DUP5 ADD ADD SWAP2 POP POP SWAP3 SWAP2 POP POP JUMP JUMPDEST PUSH1 0x1 DUP2 DUP2 SHR SWAP1 DUP3 AND DUP1 PUSH2 0x2CF JUMPI PUSH1 0x7F DUP3 AND SWAP2 POP JUMPDEST PUSH1 0x20 DUP3 LT DUP2 SUB PUSH2 0x2ED JUMPI PUSH4 0x4E487B71 PUSH1 0xE0 SHL PUSH0 MSTORE PUSH1 0x22 PUSH1 0x4 MSTORE PUSH1 0x24 PUSH0 REVERT JUMPDEST POP SWAP2 SWAP1 POP JUMP JUMPDEST PUSH1 0x1F DUP3 GT ISZERO PUSH2 0x33A JUMPI DUP1 PUSH0 MSTORE PUSH1 0x20 PUSH0 KECCAK256 PUSH1 0x1F DUP5 ADD PUSH1 0x5 SHR DUP2 ADD PUSH1 0x20 DUP6 LT ISZERO PUSH2 0x318 JUMPI POP DUP1 JUMPDEST PUSH1 0x1F DUP5 ADD PUSH1 0x5 SHR DUP3 ADD SWAP2 POP JUMPDEST DUP2 DUP2 LT ISZERO PUSH2 0x337 JUMPI PUSH0 DUP2 SSTORE PUSH1 0x1 ADD PUSH2 0x324 JUMP JUMPDEST POP POP JUMPDEST POP POP POP JUMP JUMPDEST DUP2 MLOAD PUSH8 0xFFFFFFFFFFFFFFFF DUP2 GT ISZERO PUSH2 0x359 JUMPI PUSH2 0x359 PUSH2 0x1C7 JUMP JUMPDEST PUSH2 0x36D DUP2 PUSH2 0x367 DUP5 SLOAD PUSH2 0x2BB JUMP JUMPDEST DUP5 PUSH2 0x2F3 JUMP JUMPDEST PUSH1 0x20 DUP1 PUSH1 0x1F DUP4 GT PUSH1 0x1 DUP2 EQ PUSH2 0x3A0 JUMPI PUSH0 DUP5 ISZERO PUSH2 0x389 JUMPI POP DUP6 DUP4 ADD MLOAD JUMPDEST PUSH0 NOT PUSH1 0x3 DUP7 SWAP1 SHL SHR NOT AND PUSH1 0x1 DUP6 SWAP1 SHL OR DUP6 SSTORE PUSH2 0x3F7 JUMP JUMPDEST PUSH0 DUP6 DUP2 MSTORE PUSH1 0x20 DUP2 KECCAK256 PUSH1 0x1F NOT DUP7 AND SWAP2 JUMPDEST DUP3 DUP2 LT ISZERO PUSH2 0x3CE JUMPI DUP9 DUP7 ADD MLOAD DUP3 SSTORE SWAP5 DUP5 ADD SWAP5 PUSH1 0x1 SWAP1 SWAP2 ADD SWAP1 DUP5 ADD PUSH2 0x3AF JUMP JUMPDEST POP DUP6 DUP3 LT ISZERO PUSH2 0x3EB JUMPI DUP8 DUP6 ADD MLOAD PUSH0 NOT PUSH1 0x3 DUP9 SWAP1 SHL PUSH1 0xF8 AND SHR NOT AND DUP2 SSTORE JUMPDEST POP POP PUSH1 0x1 DUP5 PUSH1 0x1 SHL ADD DUP6 SSTORE JUMPDEST POP POP POP POP POP POP JUMP JUMPDEST DUP2 DUP2 SUB DUP2 DUP2 GT ISZERO PUSH2 0x41E JUMPI PUSH4 0x4E487B71 PUSH1 0xE0 SHL PUSH0 MSTORE PUSH1 0x11 PUSH1 0x4 MSTORE PUSH1 0x24 PUSH0 REVERT JUMPDEST SWAP3 SWAP2 POP POP JUMP INVALID LOG2 PUSH5 0x6970667358 0x22 SLT KECCAK256 DUP15 PUSH7 0x8F23F5E7810257 EXTCODESIZE PUSH5 0x152AB30909 LOG3 SWAP7 0xEF OR 0x1F SWAP14 0xB8 0xDE 0x24 0x28 0xE PUSH8 0x7DCBC73964736F6C PUSH4 0x43000819 STOP CALLER "
		},
		"gasEstimates": {
			"creation": {
				"codeDepositCost": "222800",
				"executionCost": "infinite",
				"totalCost": "infinite"
			},
			"external": {
				"Str()": "infinite",
				"UpdateString(string)": "infinite"
			}
		},
		"methodIdentifiers": {
			"Str()": "59f0bd1b",
			"UpdateString(string)": "438328e9"
		}
	},
	"abi": [
		{
			"inputs": [],
			"name": "Str",
			"outputs": [
				{
					"internalType": "string",
					"name": "",
					"type": "string"
				}
			],
			"stateMutability": "view",
			"type": "function"
		},
		{
			"inputs": [
				{
					"internalType": "string",
					"name": "_newString",
					"type": "string"
				}
			],
			"name": "UpdateString",
			"outputs": [
				{
					"internalType": "uint256",
					"name": "",
					"type": "uint256"
				},
				{
					"internalType": "uint256",
					"name": "",
					"type": "uint256"
				}
			],
			"stateMutability": "payable",
			"type": "function"
		}
	]
}